{
  "contractName": "HealthcareInsurance",
  "abi": [
    {
      "anonymous": false,
      "inputs": [
        {
          "indexed": false,
          "internalType": "string",
          "name": "patientID",
          "type": "string"
        },
        {
          "indexed": false,
          "internalType": "uint256",
          "name": "amount",
          "type": "uint256"
        }
      ],
      "name": "BillCleared",
      "type": "event"
    },
    {
      "anonymous": false,
      "inputs": [
        {
          "indexed": false,
          "internalType": "string",
          "name": "companyName",
          "type": "string"
        }
      ],
      "name": "InsuranceCompanyAdded",
      "type": "event"
    },
    {
      "anonymous": false,
      "inputs": [
        {
          "indexed": false,
          "internalType": "string",
          "name": "policyID",
          "type": "string"
        }
      ],
      "name": "InsurancePolicyAdded",
      "type": "event"
    },
    {
      "anonymous": false,
      "inputs": [
        {
          "indexed": false,
          "internalType": "string",
          "name": "patientID",
          "type": "string"
        }
      ],
      "name": "PatientAdded",
      "type": "event"
    },
    {
      "inputs": [
        {
          "internalType": "string",
          "name": "",
          "type": "string"
        }
      ],
      "name": "companies",
      "outputs": [
        {
          "internalType": "string",
          "name": "name",
          "type": "string"
        }
      ],
      "stateMutability": "view",
      "type": "function",
      "constant": true
    },
    {
      "inputs": [
        {
          "internalType": "string",
          "name": "",
          "type": "string"
        }
      ],
      "name": "patients",
      "outputs": [
        {
          "internalType": "string",
          "name": "patientID",
          "type": "string"
        },
        {
          "internalType": "string",
          "name": "insurancePolicy",
          "type": "string"
        },
        {
          "internalType": "string",
          "name": "insuranceCompany",
          "type": "string"
        },
        {
          "internalType": "uint256",
          "name": "balance",
          "type": "uint256"
        }
      ],
      "stateMutability": "view",
      "type": "function",
      "constant": true
    },
    {
      "inputs": [
        {
          "internalType": "string",
          "name": "",
          "type": "string"
        }
      ],
      "name": "policies",
      "outputs": [
        {
          "internalType": "string",
          "name": "policyID",
          "type": "string"
        },
        {
          "internalType": "string",
          "name": "companyName",
          "type": "string"
        },
        {
          "internalType": "uint256",
          "name": "coverage",
          "type": "uint256"
        },
        {
          "internalType": "uint256",
          "name": "deductible",
          "type": "uint256"
        }
      ],
      "stateMutability": "view",
      "type": "function",
      "constant": true
    },
    {
      "inputs": [
        {
          "internalType": "string",
          "name": "patientID",
          "type": "string"
        },
        {
          "internalType": "string",
          "name": "insurancePolicy",
          "type": "string"
        },
        {
          "internalType": "string",
          "name": "insuranceCompany",
          "type": "string"
        },
        {
          "internalType": "uint256",
          "name": "balance",
          "type": "uint256"
        }
      ],
      "name": "addPatient",
      "outputs": [],
      "stateMutability": "nonpayable",
      "type": "function"
    },
    {
      "inputs": [
        {
          "internalType": "string",
          "name": "policyID",
          "type": "string"
        },
        {
          "internalType": "string",
          "name": "companyName",
          "type": "string"
        },
        {
          "internalType": "uint256",
          "name": "coverage",
          "type": "uint256"
        },
        {
          "internalType": "uint256",
          "name": "deductible",
          "type": "uint256"
        }
      ],
      "name": "addInsurancePolicy",
      "outputs": [],
      "stateMutability": "nonpayable",
      "type": "function"
    },
    {
      "inputs": [
        {
          "internalType": "string",
          "name": "name",
          "type": "string"
        }
      ],
      "name": "addInsuranceCompany",
      "outputs": [],
      "stateMutability": "nonpayable",
      "type": "function"
    },
    {
      "inputs": [
        {
          "internalType": "string",
          "name": "patientID",
          "type": "string"
        }
      ],
      "name": "verifyInsurance",
      "outputs": [
        {
          "internalType": "uint256",
          "name": "",
          "type": "uint256"
        }
      ],
      "stateMutability": "view",
      "type": "function",
      "constant": true
    },
    {
      "inputs": [
        {
          "internalType": "string",
          "name": "patientID",
          "type": "string"
        },
        {
          "internalType": "uint256",
          "name": "amount",
          "type": "uint256"
        }
      ],
      "name": "clearBill",
      "outputs": [],
      "stateMutability": "nonpayable",
      "type": "function"
    },
    {
      "inputs": [],
      "name": "listInsuranceCompanies",
      "outputs": [
        {
          "internalType": "string[]",
          "name": "",
          "type": "string[]"
        }
      ],
      "stateMutability": "view",
      "type": "function",
      "constant": true
    }
  ],
  "bytecode": "0x608060405234801561000f575f80fd5b50611f5c8061001d5f395ff3fe608060405234801561000f575f80fd5b5060043610610091575f3560e01c80634a7ba3e5116100645780634a7ba3e5146101195780636dd151cb1461014c5780637a3d02771461016a578063a52cd5071461019a578063c6009d84146101b657610091565b80630532a58c14610095578063098d7c11146100b15780632071fd6a146100cd578063312d4241146100fd575b5f80fd5b6100af60048036038101906100aa919061137d565b6101e9565b005b6100cb60048036038101906100c69190611419565b610319565b005b6100e760048036038101906100e29190611419565b610397565b6040516100f4919061146f565b60405180910390f35b61011760048036038101906101129190611488565b61079c565b005b610133600480360381019061012e9190611419565b610945565b60405161014394939291906115ba565b60405180910390f35b610154610a95565b604051610161919061170e565b60405180910390f35b610184600480360381019061017f9190611419565b610c94565b604051610191919061172e565b60405180910390f35b6101b460048036038101906101af919061174e565b610d4c565b005b6101d060048036038101906101cb9190611419565b611028565b6040516101e094939291906117a8565b60405180910390f35b5f6002846040516101fa919061183a565b90815260200160405180910390205f0180546102159061187d565b905003610257576040517f08c379a000000000000000000000000000000000000000000000000000000000815260040161024e906118f7565b60405180910390fd5b5f60405180608001604052808681526020018581526020018481526020018381525090508060018660405161028c919061183a565b90815260200160405180910390205f820151815f0190816102ad9190611ab2565b5060208201518160010190816102c39190611ab2565b5060408201518160020155606082015181600301559050507fb5a56b3ddc5e25321ac6af99623dc4bfda0e8e00be0601317b1b64ca5cabb1a38560405161030a919061172e565b60405180910390a15050505050565b604051806020016040528082815250600282604051610338919061183a565b90815260200160405180910390205f820151815f0190816103599190611ab2565b509050507f31311ddcaa4bcf852cd1c1887bc66809786970a0bf7b2c83b7b2db562c0a6b018160405161038c919061172e565b60405180910390a150565b5f805f836040516103a8919061183a565b90815260200160405180910390206040518060800160405290815f820180546103d09061187d565b80601f01602080910402602001604051908101604052809291908181526020018280546103fc9061187d565b80156104475780601f1061041e57610100808354040283529160200191610447565b820191905f5260205f20905b81548152906001019060200180831161042a57829003601f168201915b505050505081526020016001820180546104609061187d565b80601f016020809104026020016040519081016040528092919081815260200182805461048c9061187d565b80156104d75780601f106104ae576101008083540402835291602001916104d7565b820191905f5260205f20905b8154815290600101906020018083116104ba57829003601f168201915b505050505081526020016002820180546104f09061187d565b80601f016020809104026020016040519081016040528092919081815260200182805461051c9061187d565b80156105675780601f1061053e57610100808354040283529160200191610567565b820191905f5260205f20905b81548152906001019060200180831161054a57829003601f168201915b5050505050815260200160038201548152505090505f815f015151036105c2576040517f08c379a00000000000000000000000000000000000000000000000000000000081526004016105b990611bcb565b60405180910390fd5b5f600182602001516040516105d7919061183a565b90815260200160405180910390206040518060800160405290815f820180546105ff9061187d565b80601f016020809104026020016040519081016040528092919081815260200182805461062b9061187d565b80156106765780601f1061064d57610100808354040283529160200191610676565b820191905f5260205f20905b81548152906001019060200180831161065957829003601f168201915b5050505050815260200160018201805461068f9061187d565b80601f01602080910402602001604051908101604052809291908181526020018280546106bb9061187d565b80156107065780601f106106dd57610100808354040283529160200191610706565b820191905f5260205f20905b8154815290600101906020018083116106e957829003601f168201915b505050505081526020016002820154815260200160038201548152505090505f815f0151510361076b576040517f08c379a000000000000000000000000000000000000000000000000000000000815260040161076290611c33565b60405180910390fd5b5f8260600151826060015183604001516107859190611c7e565b61078f9190611c7e565b9050809350505050919050565b5f6002836040516107ad919061183a565b90815260200160405180910390205f0180546107c89061187d565b90500361080a576040517f08c379a0000000000000000000000000000000000000000000000000000000008152600401610801906118f7565b60405180910390fd5b5f60018460405161081b919061183a565b90815260200160405180910390205f0180546108369061187d565b905003610878576040517f08c379a000000000000000000000000000000000000000000000000000000000815260040161086f90611cfb565b60405180910390fd5b5f6040518060800160405280868152602001858152602001848152602001838152509050805f866040516108ac919061183a565b90815260200160405180910390205f820151815f0190816108cd9190611ab2565b5060208201518160010190816108e39190611ab2565b5060408201518160020190816108f99190611ab2565b50606082015181600301559050507f81cd9fdc4d6ed16387894b82774c678fd9ad2001e0fab2e1722d01484833ebf885604051610936919061172e565b60405180910390a15050505050565b6001818051602081018201805184825260208301602085012081835280955050505050505f91509050805f01805461097c9061187d565b80601f01602080910402602001604051908101604052809291908181526020018280546109a89061187d565b80156109f35780601f106109ca576101008083540402835291602001916109f3565b820191905f5260205f20905b8154815290600101906020018083116109d657829003601f168201915b505050505090806001018054610a089061187d565b80601f0160208091040260200160405190810160405280929190818152602001828054610a349061187d565b8015610a7f5780601f10610a5657610100808354040283529160200191610a7f565b820191905f5260205f20905b815481529060010190602001808311610a6257829003601f168201915b5050505050908060020154908060030154905084565b60605f805b6103e8811015610b18575f600282604051602001610ab89190611d39565b604051602081830303815290604052604051610ad4919061183a565b90815260200160405180910390205f018054610aef9061187d565b905014610b05578180610b0190611d53565b9250505b8080610b1090611d53565b915050610a9a565b505f8167ffffffffffffffff811115610b3457610b33611226565b5b604051908082528060200260200182016040528015610b6757816020015b6060815260200190600190039081610b525790505b5090505f805b6103e8811015610c8a575f600282604051602001610b8b9190611d39565b604051602081830303815290604052604051610ba7919061183a565b90815260200160405180910390205f018054610bc29061187d565b80601f0160208091040260200160405190810160405280929190818152602001828054610bee9061187d565b8015610c395780601f10610c1057610100808354040283529160200191610c39565b820191905f5260205f20905b815481529060010190602001808311610c1c57829003601f168201915b505050505090505f815114610c765780848481518110610c5c57610c5b611d9a565b5b60200260200101819052508280610c7290611d53565b9350505b508080610c8290611d53565b915050610b6d565b5081935050505090565b6002818051602081018201805184825260208301602085012081835280955050505050505f91509050805f018054610ccb9061187d565b80601f0160208091040260200160405190810160405280929190818152602001828054610cf79061187d565b8015610d425780601f10610d1957610100808354040283529160200191610d42565b820191905f5260205f20905b815481529060010190602001808311610d2557829003601f168201915b5050505050905081565b5f8083604051610d5c919061183a565b908152602001604051809103902090505f815f018054610d7b9061187d565b905003610dbd576040517f08c379a0000000000000000000000000000000000000000000000000000000008152600401610db490611bcb565b60405180910390fd5b5f600182600101604051610dd19190611e47565b90815260200160405180910390206040518060800160405290815f82018054610df99061187d565b80601f0160208091040260200160405190810160405280929190818152602001828054610e259061187d565b8015610e705780601f10610e4757610100808354040283529160200191610e70565b820191905f5260205f20905b815481529060010190602001808311610e5357829003601f168201915b50505050508152602001600182018054610e899061187d565b80601f0160208091040260200160405190810160405280929190818152602001828054610eb59061187d565b8015610f005780601f10610ed757610100808354040283529160200191610f00565b820191905f5260205f20905b815481529060010190602001808311610ee357829003601f168201915b505050505081526020016002820154815260200160038201548152505090505f815f01515103610f65576040517f08c379a0000000000000000000000000000000000000000000000000000000008152600401610f5c90611c33565b60405180910390fd5b5f826003015482606001518360400151610f7f9190611c7e565b610f899190611c7e565b905083811015610fce576040517f08c379a0000000000000000000000000000000000000000000000000000000008152600401610fc590611ea7565b60405180910390fd5b83836003015f828254610fe19190611ec5565b925050819055507f9cdd21eaf821c608ae14a291ddd6812179615cd4b9929f1504b23f4e3f3837d88585604051611019929190611ef8565b60405180910390a15050505050565b5f818051602081018201805184825260208301602085012081835280955050505050505f91509050805f01805461105e9061187d565b80601f016020809104026020016040519081016040528092919081815260200182805461108a9061187d565b80156110d55780601f106110ac576101008083540402835291602001916110d5565b820191905f5260205f20905b8154815290600101906020018083116110b857829003601f168201915b5050505050908060010180546110ea9061187d565b80601f01602080910402602001604051908101604052809291908181526020018280546111169061187d565b80156111615780601f1061113857610100808354040283529160200191611161565b820191905f5260205f20905b81548152906001019060200180831161114457829003601f168201915b5050505050908060020180546111769061187d565b80601f01602080910402602001604051908101604052809291908181526020018280546111a29061187d565b80156111ed5780601f106111c4576101008083540402835291602001916111ed565b820191905f5260205f20905b8154815290600101906020018083116111d057829003601f168201915b5050505050908060030154905084565b5f604051905090565b5f80fd5b5f80fd5b5f80fd5b5f80fd5b5f601f19601f8301169050919050565b7f4e487b71000000000000000000000000000000000000000000000000000000005f52604160045260245ffd5b61125c82611216565b810181811067ffffffffffffffff8211171561127b5761127a611226565b5b80604052505050565b5f61128d6111fd565b90506112998282611253565b919050565b5f67ffffffffffffffff8211156112b8576112b7611226565b5b6112c182611216565b9050602081019050919050565b828183375f83830152505050565b5f6112ee6112e98461129e565b611284565b90508281526020810184848401111561130a57611309611212565b5b6113158482856112ce565b509392505050565b5f82601f8301126113315761133061120e565b5b81356113418482602086016112dc565b91505092915050565b5f819050919050565b61135c8161134a565b8114611366575f80fd5b50565b5f8135905061137781611353565b92915050565b5f805f806080858703121561139557611394611206565b5b5f85013567ffffffffffffffff8111156113b2576113b161120a565b5b6113be8782880161131d565b945050602085013567ffffffffffffffff8111156113df576113de61120a565b5b6113eb8782880161131d565b93505060406113fc87828801611369565b925050606061140d87828801611369565b91505092959194509250565b5f6020828403121561142e5761142d611206565b5b5f82013567ffffffffffffffff81111561144b5761144a61120a565b5b6114578482850161131d565b91505092915050565b6114698161134a565b82525050565b5f6020820190506114825f830184611460565b92915050565b5f805f80608085870312156114a05761149f611206565b5b5f85013567ffffffffffffffff8111156114bd576114bc61120a565b5b6114c98782880161131d565b945050602085013567ffffffffffffffff8111156114ea576114e961120a565b5b6114f68782880161131d565b935050604085013567ffffffffffffffff8111156115175761151661120a565b5b6115238782880161131d565b925050606061153487828801611369565b91505092959194509250565b5f81519050919050565b5f82825260208201905092915050565b5f5b8381101561157757808201518184015260208101905061155c565b5f8484015250505050565b5f61158c82611540565b611596818561154a565b93506115a681856020860161155a565b6115af81611216565b840191505092915050565b5f6080820190508181035f8301526115d28187611582565b905081810360208301526115e68186611582565b90506115f56040830185611460565b6116026060830184611460565b95945050505050565b5f81519050919050565b5f82825260208201905092915050565b5f819050602082019050919050565b5f82825260208201905092915050565b5f61164e82611540565b6116588185611634565b935061166881856020860161155a565b61167181611216565b840191505092915050565b5f6116878383611644565b905092915050565b5f602082019050919050565b5f6116a58261160b565b6116af8185611615565b9350836020820285016116c185611625565b805f5b858110156116fc57848403895281516116dd858261167c565b94506116e88361168f565b925060208a019950506001810190506116c4565b50829750879550505050505092915050565b5f6020820190508181035f830152611726818461169b565b905092915050565b5f6020820190508181035f8301526117468184611582565b905092915050565b5f806040838503121561176457611763611206565b5b5f83013567ffffffffffffffff8111156117815761178061120a565b5b61178d8582860161131d565b925050602061179e85828601611369565b9150509250929050565b5f6080820190508181035f8301526117c08187611582565b905081810360208301526117d48186611582565b905081810360408301526117e88185611582565b90506117f76060830184611460565b95945050505050565b5f81905092915050565b5f61181482611540565b61181e8185611800565b935061182e81856020860161155a565b80840191505092915050565b5f611845828461180a565b915081905092915050565b7f4e487b71000000000000000000000000000000000000000000000000000000005f52602260045260245ffd5b5f600282049050600182168061189457607f821691505b6020821081036118a7576118a6611850565b5b50919050565b7f496e76616c696420696e737572616e636520636f6d70616e79000000000000005f82015250565b5f6118e160198361154a565b91506118ec826118ad565b602082019050919050565b5f6020820190508181035f83015261190e816118d5565b9050919050565b5f819050815f5260205f209050919050565b5f6020601f8301049050919050565b5f82821b905092915050565b5f600883026119717fffffffffffffffffffffffffffffffffffffffffffffffffffffffffffffffff82611936565b61197b8683611936565b95508019841693508086168417925050509392505050565b5f819050919050565b5f6119b66119b16119ac8461134a565b611993565b61134a565b9050919050565b5f819050919050565b6119cf8361199c565b6119e36119db826119bd565b848454611942565b825550505050565b5f90565b6119f76119eb565b611a028184846119c6565b505050565b5b81811015611a2557611a1a5f826119ef565b600181019050611a08565b5050565b601f821115611a6a57611a3b81611915565b611a4484611927565b81016020851015611a53578190505b611a67611a5f85611927565b830182611a07565b50505b505050565b5f82821c905092915050565b5f611a8a5f1984600802611a6f565b1980831691505092915050565b5f611aa28383611a7b565b9150826002028217905092915050565b611abb82611540565b67ffffffffffffffff811115611ad457611ad3611226565b5b611ade825461187d565b611ae9828285611a29565b5f60209050601f831160018114611b1a575f8415611b08578287015190505b611b128582611a97565b865550611b79565b601f198416611b2886611915565b5f5b82811015611b4f57848901518255600182019150602085019450602081019050611b2a565b86831015611b6c5784890151611b68601f891682611a7b565b8355505b6001600288020188555050505b505050505050565b7f50617469656e74206e6f7420666f756e640000000000000000000000000000005f82015250565b5f611bb560118361154a565b9150611bc082611b81565b602082019050919050565b5f6020820190508181035f830152611be281611ba9565b9050919050565b7f496e737572616e636520706f6c696379206e6f7420666f756e640000000000005f82015250565b5f611c1d601a8361154a565b9150611c2882611be9565b602082019050919050565b5f6020820190508181035f830152611c4a81611c11565b9050919050565b7f4e487b71000000000000000000000000000000000000000000000000000000005f52601160045260245ffd5b5f611c888261134a565b9150611c938361134a565b9250828203905081811115611cab57611caa611c51565b5b92915050565b7f496e76616c696420696e737572616e636520706f6c69637900000000000000005f82015250565b5f611ce560188361154a565b9150611cf082611cb1565b602082019050919050565b5f6020820190508181035f830152611d1281611cd9565b9050919050565b5f819050919050565b611d33611d2e8261134a565b611d19565b82525050565b5f611d448284611d22565b60208201915081905092915050565b5f611d5d8261134a565b91507fffffffffffffffffffffffffffffffffffffffffffffffffffffffffffffffff8203611d8f57611d8e611c51565b5b600182019050919050565b7f4e487b71000000000000000000000000000000000000000000000000000000005f52603260045260245ffd5b5f8154611dd38161187d565b611ddd8186611800565b9450600182165f8114611df75760018114611e0c57611e3e565b60ff1983168652811515820286019350611e3e565b611e1585611915565b5f5b83811015611e3657815481890152600182019150602081019050611e17565b838801955050505b50505092915050565b5f611e528284611dc7565b915081905092915050565b7f496e73756666696369656e7420696e737572616e636520636f766572616765005f82015250565b5f611e91601f8361154a565b9150611e9c82611e5d565b602082019050919050565b5f6020820190508181035f830152611ebe81611e85565b9050919050565b5f611ecf8261134a565b9150611eda8361134a565b9250828201905080821115611ef257611ef1611c51565b5b92915050565b5f6040820190508181035f830152611f108185611582565b9050611f1f6020830184611460565b939250505056fea26469706673582212201582533a7f4f54b246ce2cd42324937802725e5e13c597a079aeb681b94af79e64736f6c63430008150033",
  "immutableReferences": {},
  "source": "// SPDX-License-Identifier: MIT\r\npragma solidity ^0.8.0;\r\n\r\ncontract HealthcareInsurance {\r\n    \r\n    struct Patient {\r\n        string patientID;\r\n        string insurancePolicy;\r\n        string insuranceCompany;\r\n        uint256 balance; // Amount owed by the patient\r\n    }\r\n\r\n    struct InsurancePolicy {\r\n        string policyID;\r\n        string companyName;\r\n        uint256 coverage;  // Total coverage amount\r\n        uint256 deductible;  // Deductible amount\r\n    }\r\n\r\n    struct InsuranceCompany {\r\n        string name;\r\n    }\r\n\r\n    // Mappings to store data\r\n    mapping(string => Patient) public patients;\r\n    mapping(string => InsurancePolicy) public policies;\r\n    mapping(string => InsuranceCompany) public companies;\r\n\r\n    // Events for logging actions\r\n    event PatientAdded(string patientID);\r\n    event InsurancePolicyAdded(string policyID);\r\n    event InsuranceCompanyAdded(string companyName);\r\n    event BillCleared(string patientID, uint256 amount);\r\n\r\n    // Add a new patient with insurance details\r\n    function addPatient(string memory patientID, string memory insurancePolicy, string memory insuranceCompany, uint256 balance) public {\r\n        require(bytes(companies[insuranceCompany].name).length != 0, \"Invalid insurance company\");\r\n        require(bytes(policies[insurancePolicy].policyID).length != 0, \"Invalid insurance policy\");\r\n\r\n        Patient memory newPatient = Patient({\r\n            patientID: patientID,\r\n            insurancePolicy: insurancePolicy,\r\n            insuranceCompany: insuranceCompany,\r\n            balance: balance\r\n        });\r\n\r\n        patients[patientID] = newPatient;\r\n        emit PatientAdded(patientID);\r\n    }\r\n\r\n    // Add a new insurance policy\r\n    function addInsurancePolicy(string memory policyID, string memory companyName, uint256 coverage, uint256 deductible) public {\r\n        require(bytes(companies[companyName].name).length != 0, \"Invalid insurance company\");\r\n\r\n        InsurancePolicy memory newPolicy = InsurancePolicy({\r\n            policyID: policyID,\r\n            companyName: companyName,\r\n            coverage: coverage,\r\n            deductible: deductible\r\n        });\r\n\r\n        policies[policyID] = newPolicy;\r\n        emit InsurancePolicyAdded(policyID);\r\n    }\r\n\r\n    // Add a new insurance company\r\n    function addInsuranceCompany(string memory name) public {\r\n        companies[name] = InsuranceCompany(name);\r\n        emit InsuranceCompanyAdded(name);\r\n    }\r\n\r\n    // Verify the insurance coverage for a patient\r\n    function verifyInsurance(string memory patientID) public view returns (uint256) {\r\n        Patient memory patient = patients[patientID];\r\n        require(bytes(patient.patientID).length != 0, \"Patient not found\");\r\n        \r\n        InsurancePolicy memory policy = policies[patient.insurancePolicy];\r\n        require(bytes(policy.policyID).length != 0, \"Insurance policy not found\");\r\n\r\n        // Calculate available coverage after deductibles and patient balance\r\n        uint256 availableCoverage = policy.coverage - policy.deductible - patient.balance;\r\n        return availableCoverage;\r\n    }\r\n\r\n    // Clear a bill for a patient based on available insurance coverage\r\n    function clearBill(string memory patientID, uint256 amount) public {\r\n        Patient storage patient = patients[patientID];\r\n        require(bytes(patient.patientID).length != 0, \"Patient not found\");\r\n\r\n        InsurancePolicy memory policy = policies[patient.insurancePolicy];\r\n        require(bytes(policy.policyID).length != 0, \"Insurance policy not found\");\r\n\r\n        // Calculate available coverage after deductibles and balance\r\n        uint256 availableCoverage = policy.coverage - policy.deductible - patient.balance;\r\n        require(availableCoverage >= amount, \"Insufficient insurance coverage\");\r\n\r\n        // Clear the bill from patient's balance\r\n        patient.balance += amount;\r\n\r\n        emit BillCleared(patientID, amount);\r\n    }\r\n\r\n    // List all insurance companies (returns just company names for simplicity)\r\n    function listInsuranceCompanies() public view returns (string[] memory) {\r\n        uint256 totalCompanies = 0;\r\n\r\n        // Count the number of companies\r\n        for (uint256 i = 0; i < 1000; i++) { // Adjust as per the number of companies\r\n            if (bytes(companies[string(abi.encodePacked(i))].name).length != 0) {\r\n                totalCompanies++;\r\n            }\r\n        }\r\n\r\n        // Fill the array with company names\r\n        string[] memory companyNames = new string[](totalCompanies);\r\n        uint256 index = 0;\r\n        for (uint256 i = 0; i < 1000; i++) {\r\n            string memory companyName = companies[string(abi.encodePacked(i))].name;\r\n            if (bytes(companyName).length != 0) {\r\n                companyNames[index] = companyName;\r\n                index++;\r\n            }\r\n        }\r\n\r\n        return companyNames;\r\n    }\r\n}",
  "sourcePath": "D:\\blockchain\\insurance-ethereum\\contracts\\HealthcareInsurance.sol",
  "compiler": {
    "name": "solc",
    "version": "0.8.21+commit.d9974bed.Emscripten.clang"
  },
  "schemaVersion": "3.4.16",
  "updatedAt": "2024-10-25T13:13:18.637Z",
  "networkType": "ethereum",
  "devdoc": {
    "kind": "dev",
    "methods": {},
    "version": 1
  },
  "userdoc": {
    "kind": "user",
    "methods": {},
    "version": 1
  }
}